{
  "_format": "hh-sol-artifact-1",
  "contractName": "RecoveryVault",
  "sourceName": "contracts/RecoveryVault.sol",
  "abi": [
    {
      "inputs": [
        {
          "internalType": "address",
          "name": "_owner",
          "type": "address"
        },
        {
          "internalType": "address",
          "name": "_devWallet",
          "type": "address"
        },
        {
          "internalType": "address",
          "name": "_rmcWallet",
          "type": "address"
        },
        {
          "internalType": "address",
          "name": "_wone",
          "type": "address"
        },
        {
          "internalType": "address",
          "name": "_usdc",
          "type": "address"
        },
        {
          "internalType": "address[]",
          "name": "_supportedTokens",
          "type": "address[]"
        },
        {
          "internalType": "uint256",
          "name": "_dailyLimitUsd18",
          "type": "uint256"
        },
        {
          "internalType": "address",
          "name": "_oracle",
          "type": "address"
        }
      ],
      "stateMutability": "nonpayable",
      "type": "constructor"
    },
    {
      "anonymous": false,
      "inputs": [
        {
          "indexed": true,
          "internalType": "address",
          "name": "tokenIn",
          "type": "address"
        },
        {
          "indexed": false,
          "internalType": "uint256",
          "name": "amountIn",
          "type": "uint256"
        },
        {
          "indexed": false,
          "internalType": "address",
          "name": "outputToken",
          "type": "address"
        },
        {
          "indexed": false,
          "internalType": "uint256",
          "name": "amountOut",
          "type": "uint256"
        }
      ],
      "name": "BurnToken",
      "type": "event"
    },
    {
      "anonymous": false,
      "inputs": [
        {
          "indexed": false,
          "internalType": "uint256[]",
          "name": "thresholds",
          "type": "uint256[]"
        },
        {
          "indexed": false,
          "internalType": "uint16[]",
          "name": "bps",
          "type": "uint16[]"
        }
      ],
      "name": "FeeTiersUpdated",
      "type": "event"
    },
    {
      "anonymous": false,
      "inputs": [
        {
          "indexed": false,
          "internalType": "uint256",
          "name": "roundId",
          "type": "uint256"
        },
        {
          "indexed": false,
          "internalType": "uint256",
          "name": "woneBalance",
          "type": "uint256"
        },
        {
          "indexed": false,
          "internalType": "uint256",
          "name": "usdcBalance",
          "type": "uint256"
        },
        {
          "indexed": false,
          "internalType": "uint256",
          "name": "startTime",
          "type": "uint256"
        }
      ],
      "name": "NewRoundStarted",
      "type": "event"
    },
    {
      "anonymous": false,
      "inputs": [
        {
          "indexed": true,
          "internalType": "address",
          "name": "previousOwner",
          "type": "address"
        },
        {
          "indexed": true,
          "internalType": "address",
          "name": "newOwner",
          "type": "address"
        }
      ],
      "name": "OwnershipTransferred",
      "type": "event"
    },
    {
      "anonymous": false,
      "inputs": [
        {
          "indexed": true,
          "internalType": "address",
          "name": "user",
          "type": "address"
        },
        {
          "indexed": true,
          "internalType": "address",
          "name": "tokenIn",
          "type": "address"
        },
        {
          "indexed": false,
          "internalType": "uint256",
          "name": "amountIn",
          "type": "uint256"
        },
        {
          "indexed": false,
          "internalType": "uint256",
          "name": "amountOut",
          "type": "uint256"
        }
      ],
      "name": "RedeemProcessed",
      "type": "event"
    },
    {
      "anonymous": false,
      "inputs": [
        {
          "indexed": true,
          "internalType": "address",
          "name": "user",
          "type": "address"
        },
        {
          "indexed": true,
          "internalType": "address",
          "name": "tokenIn",
          "type": "address"
        },
        {
          "indexed": false,
          "internalType": "uint256",
          "name": "usdIn18",
          "type": "uint256"
        },
        {
          "indexed": false,
          "internalType": "uint256",
          "name": "usdNet18",
          "type": "uint256"
        },
        {
          "indexed": false,
          "internalType": "uint256",
          "name": "remainingBefore18",
          "type": "uint256"
        },
        {
          "indexed": false,
          "internalType": "uint256",
          "name": "remainingAfter18",
          "type": "uint256"
        }
      ],
      "name": "RedeemValuationUSD18",
      "type": "event"
    },
    {
      "anonymous": false,
      "inputs": [
        {
          "indexed": false,
          "internalType": "bool",
          "name": "enabled",
          "type": "bool"
        }
      ],
      "name": "RoundDelayToggled",
      "type": "event"
    },
    {
      "anonymous": false,
      "inputs": [
        {
          "indexed": true,
          "internalType": "uint256",
          "name": "roundId",
          "type": "uint256"
        },
        {
          "indexed": false,
          "internalType": "uint16",
          "name": "bps",
          "type": "uint16"
        },
        {
          "indexed": false,
          "internalType": "uint256",
          "name": "basisUsd",
          "type": "uint256"
        }
      ],
      "name": "RoundFeeLocked",
      "type": "event"
    },
    {
      "anonymous": false,
      "inputs": [
        {
          "indexed": false,
          "internalType": "address",
          "name": "token",
          "type": "address"
        },
        {
          "indexed": false,
          "internalType": "bool",
          "name": "allowed",
          "type": "bool"
        }
      ],
      "name": "SupportedTokenUpdated",
      "type": "event"
    },
    {
      "anonymous": false,
      "inputs": [
        {
          "indexed": true,
          "internalType": "address",
          "name": "token",
          "type": "address"
        },
        {
          "indexed": false,
          "internalType": "uint256",
          "name": "amount",
          "type": "uint256"
        }
      ],
      "name": "TokenSinkFallback",
      "type": "event"
    },
    {
      "anonymous": false,
      "inputs": [
        {
          "indexed": false,
          "internalType": "bool",
          "name": "isPaused",
          "type": "bool"
        }
      ],
      "name": "VaultPaused",
      "type": "event"
    },
    {
      "inputs": [],
      "name": "DEAD_BURN_ADDRESS",
      "outputs": [
        {
          "internalType": "address",
          "name": "",
          "type": "address"
        }
      ],
      "stateMutability": "view",
      "type": "function"
    },
    {
      "inputs": [],
      "name": "ROUND_DELAY",
      "outputs": [
        {
          "internalType": "uint256",
          "name": "",
          "type": "uint256"
        }
      ],
      "stateMutability": "view",
      "type": "function"
    },
    {
      "inputs": [],
      "name": "USDC_DECIMALS",
      "outputs": [
        {
          "internalType": "uint8",
          "name": "",
          "type": "uint8"
        }
      ],
      "stateMutability": "view",
      "type": "function"
    },
    {
      "inputs": [],
      "name": "WALLET_RESET_INTERVAL",
      "outputs": [
        {
          "internalType": "uint256",
          "name": "",
          "type": "uint256"
        }
      ],
      "stateMutability": "view",
      "type": "function"
    },
    {
      "inputs": [],
      "name": "WONE_DECIMALS",
      "outputs": [
        {
          "internalType": "uint8",
          "name": "",
          "type": "uint8"
        }
      ],
      "stateMutability": "view",
      "type": "function"
    },
    {
      "inputs": [],
      "name": "currentRound",
      "outputs": [
        {
          "internalType": "uint256",
          "name": "",
          "type": "uint256"
        }
      ],
      "stateMutability": "view",
      "type": "function"
    },
    {
      "inputs": [],
      "name": "dailyLimitUsd",
      "outputs": [
        {
          "internalType": "uint256",
          "name": "",
          "type": "uint256"
        }
      ],
      "stateMutability": "view",
      "type": "function"
    },
    {
      "inputs": [],
      "name": "devWallet",
      "outputs": [
        {
          "internalType": "address",
          "name": "",
          "type": "address"
        }
      ],
      "stateMutability": "view",
      "type": "function"
    },
    {
      "inputs": [
        {
          "internalType": "uint256",
          "name": "",
          "type": "uint256"
        }
      ],
      "name": "feeBps",
      "outputs": [
        {
          "internalType": "uint16",
          "name": "",
          "type": "uint16"
        }
      ],
      "stateMutability": "view",
      "type": "function"
    },
    {
      "inputs": [
        {
          "internalType": "uint256",
          "name": "",
          "type": "uint256"
        }
      ],
      "name": "feeThresholds",
      "outputs": [
        {
          "internalType": "uint256",
          "name": "",
          "type": "uint256"
        }
      ],
      "stateMutability": "view",
      "type": "function"
    },
    {
      "inputs": [
        {
          "internalType": "address",
          "name": "",
          "type": "address"
        }
      ],
      "name": "fixedUsdPrice",
      "outputs": [
        {
          "internalType": "uint256",
          "name": "",
          "type": "uint256"
        }
      ],
      "stateMutability": "view",
      "type": "function"
    },
    {
      "inputs": [],
      "name": "getFeeTiers",
      "outputs": [
        {
          "internalType": "uint256[]",
          "name": "thresholds",
          "type": "uint256[]"
        },
        {
          "internalType": "uint16[]",
          "name": "bps",
          "type": "uint16[]"
        }
      ],
      "stateMutability": "view",
      "type": "function"
    },
    {
      "inputs": [
        {
          "internalType": "address",
          "name": "user",
          "type": "address"
        }
      ],
      "name": "getLastRedeemTimestamp",
      "outputs": [
        {
          "internalType": "uint256",
          "name": "",
          "type": "uint256"
        }
      ],
      "stateMutability": "view",
      "type": "function"
    },
    {
      "inputs": [],
      "name": "getRoundInfo",
      "outputs": [
        {
          "internalType": "uint256",
          "name": "roundId",
          "type": "uint256"
        },
        {
          "internalType": "uint256",
          "name": "startTime",
          "type": "uint256"
        },
        {
          "internalType": "bool",
          "name": "isActive",
          "type": "bool"
        },
        {
          "internalType": "bool",
          "name": "paused",
          "type": "bool"
        },
        {
          "internalType": "uint256",
          "name": "limitUsd",
          "type": "uint256"
        },
        {
          "internalType": "bool",
          "name": "delayEnabled",
          "type": "bool"
        },
        {
          "internalType": "uint16",
          "name": "roundFeeBps",
          "type": "uint16"
        },
        {
          "internalType": "uint256",
          "name": "roundFeeBasis",
          "type": "uint256"
        }
      ],
      "stateMutability": "view",
      "type": "function"
    },
    {
      "inputs": [],
      "name": "getSupportedTokens",
      "outputs": [
        {
          "internalType": "address[]",
          "name": "",
          "type": "address[]"
        }
      ],
      "stateMutability": "view",
      "type": "function"
    },
    {
      "inputs": [
        {
          "internalType": "address",
          "name": "wallet",
          "type": "address"
        }
      ],
      "name": "getUserLimit",
      "outputs": [
        {
          "internalType": "uint256",
          "name": "remainingUSD18",
          "type": "uint256"
        }
      ],
      "stateMutability": "view",
      "type": "function"
    },
    {
      "inputs": [],
      "name": "getVaultBalances",
      "outputs": [
        {
          "internalType": "uint256",
          "name": "woneBalance",
          "type": "uint256"
        },
        {
          "internalType": "uint256",
          "name": "usdcBalance",
          "type": "uint256"
        }
      ],
      "stateMutability": "view",
      "type": "function"
    },
    {
      "inputs": [],
      "name": "isLocked",
      "outputs": [
        {
          "internalType": "bool",
          "name": "",
          "type": "bool"
        }
      ],
      "stateMutability": "view",
      "type": "function"
    },
    {
      "inputs": [
        {
          "internalType": "address",
          "name": "",
          "type": "address"
        }
      ],
      "name": "lastRedeemTimestamp",
      "outputs": [
        {
          "internalType": "uint256",
          "name": "",
          "type": "uint256"
        }
      ],
      "stateMutability": "view",
      "type": "function"
    },
    {
      "inputs": [
        {
          "internalType": "address",
          "name": "",
          "type": "address"
        }
      ],
      "name": "limitUnlockAt",
      "outputs": [
        {
          "internalType": "uint256",
          "name": "",
          "type": "uint256"
        }
      ],
      "stateMutability": "view",
      "type": "function"
    },
    {
      "inputs": [],
      "name": "merkleRoot",
      "outputs": [
        {
          "internalType": "bytes32",
          "name": "",
          "type": "bytes32"
        }
      ],
      "stateMutability": "view",
      "type": "function"
    },
    {
      "inputs": [],
      "name": "oracle",
      "outputs": [
        {
          "internalType": "contract IOracle",
          "name": "",
          "type": "address"
        }
      ],
      "stateMutability": "view",
      "type": "function"
    },
    {
      "inputs": [],
      "name": "owner",
      "outputs": [
        {
          "internalType": "address",
          "name": "",
          "type": "address"
        }
      ],
      "stateMutability": "view",
      "type": "function"
    },
    {
      "inputs": [
        {
          "internalType": "address",
          "name": "",
          "type": "address"
        }
      ],
      "name": "periodStart",
      "outputs": [
        {
          "internalType": "uint256",
          "name": "",
          "type": "uint256"
        }
      ],
      "stateMutability": "view",
      "type": "function"
    },
    {
      "inputs": [
        {
          "internalType": "address",
          "name": "user",
          "type": "address"
        },
        {
          "internalType": "address",
          "name": "tokenIn",
          "type": "address"
        },
        {
          "internalType": "uint256",
          "name": "amountIn",
          "type": "uint256"
        },
        {
          "internalType": "address",
          "name": "redeemIn",
          "type": "address"
        },
        {
          "internalType": "bytes32[]",
          "name": "proof",
          "type": "bytes32[]"
        }
      ],
      "name": "quoteRedeem",
      "outputs": [
        {
          "internalType": "bool",
          "name": "whitelisted",
          "type": "bool"
        },
        {
          "internalType": "bool",
          "name": "roundIsActive",
          "type": "bool"
        },
        {
          "internalType": "uint256",
          "name": "feeAmountInTokenIn",
          "type": "uint256"
        },
        {
          "internalType": "uint256",
          "name": "burnAmountInTokenIn",
          "type": "uint256"
        },
        {
          "internalType": "uint256",
          "name": "userLimitUsdBefore",
          "type": "uint256"
        },
        {
          "internalType": "uint256",
          "name": "userLimitUsdAfter",
          "type": "uint256"
        },
        {
          "internalType": "uint256",
          "name": "usdValueIn",
          "type": "uint256"
        },
        {
          "internalType": "uint8",
          "name": "tokenInDecimals",
          "type": "uint8"
        },
        {
          "internalType": "uint8",
          "name": "redeemInDecimals",
          "type": "uint8"
        },
        {
          "internalType": "uint256",
          "name": "oraclePrice",
          "type": "uint256"
        },
        {
          "internalType": "uint8",
          "name": "oracleDecimals",
          "type": "uint8"
        },
        {
          "internalType": "uint256",
          "name": "amountOutRedeemToken",
          "type": "uint256"
        }
      ],
      "stateMutability": "view",
      "type": "function"
    },
    {
      "inputs": [
        {
          "internalType": "address",
          "name": "tokenIn",
          "type": "address"
        },
        {
          "internalType": "uint256",
          "name": "amountIn",
          "type": "uint256"
        },
        {
          "internalType": "address",
          "name": "redeemIn",
          "type": "address"
        },
        {
          "internalType": "bytes32[]",
          "name": "proof",
          "type": "bytes32[]"
        }
      ],
      "name": "redeem",
      "outputs": [],
      "stateMutability": "payable",
      "type": "function"
    },
    {
      "inputs": [
        {
          "internalType": "uint256",
          "name": "",
          "type": "uint256"
        },
        {
          "internalType": "address",
          "name": "",
          "type": "address"
        }
      ],
      "name": "redeemedInRound",
      "outputs": [
        {
          "internalType": "uint256",
          "name": "",
          "type": "uint256"
        }
      ],
      "stateMutability": "view",
      "type": "function"
    },
    {
      "inputs": [],
      "name": "renounceOwnership",
      "outputs": [],
      "stateMutability": "nonpayable",
      "type": "function"
    },
    {
      "inputs": [],
      "name": "rmcWallet",
      "outputs": [
        {
          "internalType": "address",
          "name": "",
          "type": "address"
        }
      ],
      "stateMutability": "view",
      "type": "function"
    },
    {
      "inputs": [],
      "name": "roundBps",
      "outputs": [
        {
          "internalType": "uint16",
          "name": "",
          "type": "uint16"
        }
      ],
      "stateMutability": "view",
      "type": "function"
    },
    {
      "inputs": [],
      "name": "roundDelayEnabled",
      "outputs": [
        {
          "internalType": "bool",
          "name": "",
          "type": "bool"
        }
      ],
      "stateMutability": "view",
      "type": "function"
    },
    {
      "inputs": [],
      "name": "roundFeeBasisUsd",
      "outputs": [
        {
          "internalType": "uint256",
          "name": "",
          "type": "uint256"
        }
      ],
      "stateMutability": "view",
      "type": "function"
    },
    {
      "inputs": [],
      "name": "roundFeeLocked",
      "outputs": [
        {
          "internalType": "bool",
          "name": "",
          "type": "bool"
        }
      ],
      "stateMutability": "view",
      "type": "function"
    },
    {
      "inputs": [],
      "name": "roundStart",
      "outputs": [
        {
          "internalType": "uint256",
          "name": "",
          "type": "uint256"
        }
      ],
      "stateMutability": "view",
      "type": "function"
    },
    {
      "inputs": [
        {
          "internalType": "uint256",
          "name": "usdAmount18",
          "type": "uint256"
        }
      ],
      "name": "setDailyLimit",
      "outputs": [],
      "stateMutability": "nonpayable",
      "type": "function"
    },
    {
      "inputs": [
        {
          "internalType": "address",
          "name": "wallet",
          "type": "address"
        }
      ],
      "name": "setDevWallet",
      "outputs": [],
      "stateMutability": "nonpayable",
      "type": "function"
    },
    {
      "inputs": [
        {
          "internalType": "uint256[]",
          "name": "thresholds",
          "type": "uint256[]"
        },
        {
          "internalType": "uint16[]",
          "name": "bps",
          "type": "uint16[]"
        }
      ],
      "name": "setFeeTiers",
      "outputs": [],
      "stateMutability": "nonpayable",
      "type": "function"
    },
    {
      "inputs": [
        {
          "internalType": "address",
          "name": "token",
          "type": "address"
        },
        {
          "internalType": "uint256",
          "name": "usdPrice18",
          "type": "uint256"
        }
      ],
      "name": "setFixedUsdPrice",
      "outputs": [],
      "stateMutability": "nonpayable",
      "type": "function"
    },
    {
      "inputs": [
        {
          "internalType": "bool",
          "name": "_status",
          "type": "bool"
        }
      ],
      "name": "setLocked",
      "outputs": [],
      "stateMutability": "nonpayable",
      "type": "function"
    },
    {
      "inputs": [
        {
          "internalType": "bytes32",
          "name": "_root",
          "type": "bytes32"
        }
      ],
      "name": "setMerkleRoot",
      "outputs": [],
      "stateMutability": "nonpayable",
      "type": "function"
    },
    {
      "inputs": [
        {
          "internalType": "address",
          "name": "_oracle",
          "type": "address"
        }
      ],
      "name": "setOracle",
      "outputs": [],
      "stateMutability": "nonpayable",
      "type": "function"
    },
    {
      "inputs": [
        {
          "internalType": "address",
          "name": "wallet",
          "type": "address"
        }
      ],
      "name": "setRmcWallet",
      "outputs": [],
      "stateMutability": "nonpayable",
      "type": "function"
    },
    {
      "inputs": [
        {
          "internalType": "bool",
          "name": "enabled",
          "type": "bool"
        }
      ],
      "name": "setRoundDelayEnabled",
      "outputs": [],
      "stateMutability": "nonpayable",
      "type": "function"
    },
    {
      "inputs": [
        {
          "internalType": "address",
          "name": "token",
          "type": "address"
        },
        {
          "internalType": "bool",
          "name": "allowed",
          "type": "bool"
        }
      ],
      "name": "setSupportedToken",
      "outputs": [],
      "stateMutability": "nonpayable",
      "type": "function"
    },
    {
      "inputs": [
        {
          "internalType": "uint256",
          "name": "_roundId",
          "type": "uint256"
        }
      ],
      "name": "startNewRound",
      "outputs": [],
      "stateMutability": "nonpayable",
      "type": "function"
    },
    {
      "inputs": [
        {
          "internalType": "address",
          "name": "",
          "type": "address"
        }
      ],
      "name": "supportedToken",
      "outputs": [
        {
          "internalType": "bool",
          "name": "",
          "type": "bool"
        }
      ],
      "stateMutability": "view",
      "type": "function"
    },
    {
      "inputs": [
        {
          "internalType": "uint256",
          "name": "",
          "type": "uint256"
        }
      ],
      "name": "supportedTokenList",
      "outputs": [
        {
          "internalType": "address",
          "name": "",
          "type": "address"
        }
      ],
      "stateMutability": "view",
      "type": "function"
    },
    {
      "inputs": [
        {
          "internalType": "address",
          "name": "newOwner",
          "type": "address"
        }
      ],
      "name": "transferOwnership",
      "outputs": [],
      "stateMutability": "nonpayable",
      "type": "function"
    },
    {
      "inputs": [],
      "name": "usdc",
      "outputs": [
        {
          "internalType": "address",
          "name": "",
          "type": "address"
        }
      ],
      "stateMutability": "view",
      "type": "function"
    },
    {
      "inputs": [],
      "name": "wONE",
      "outputs": [
        {
          "internalType": "address",
          "name": "",
          "type": "address"
        }
      ],
      "stateMutability": "view",
      "type": "function"
    },
    {
      "inputs": [
        {
          "internalType": "address",
          "name": "token",
          "type": "address"
        }
      ],
      "name": "withdrawFunds",
      "outputs": [],
      "stateMutability": "nonpayable",
      "type": "function"
    }
  ],
  "bytecode": "0x610100604052346200013f5762000029620000196200030b565b96959095949194939293620008c6565b60405161485862000c8682396080518181816105400152818161177c015281816117ba0152818161181f0152818161191e01528181611b230152818161201e0152818161257f01528181613701015281816139aa01528181613c1e0152613db1015260a0518181816108bb01528181611a3301528181611e1901528181611f64015281816120a20152818161237c0152818161244a01528181612606015281816137df015281816139f301528181613c880152613d61015260c05181818161091b0152818161194f01528181611ddd015281816120750152818161234d0152613988015260e051818181610d8401528181611a6401528181611e4e015281816120d3015281816123af01526139d1015261485890f35b600080fd5b634e487b7160e01b600052604160045260246000fd5b90601f01601f191681019081106001600160401b038211176200017c57604052565b62000144565b90620001996200019160405190565b92836200015a565b565b6001600160a01b031690565b90565b6001600160a01b0381165b036200013f57565b905051906200019982620001aa565b6001600160401b0381116200017c5760208091020190565b90929192620001fd620001f782620001cc565b62000182565b93818552602080860192028301928184116200013f57915b838310620002235750505050565b60208091620002338486620001bd565b81520192019162000215565b9080601f830112156200013f578151620001a792602001620001e4565b80620001b5565b9050519062000199826200025c565b610100818303126200013f576200028a8282620001bd565b926200029a8360208401620001bd565b92604090620002ac81838601620001bd565b93620002bc8260608301620001bd565b93620002cc8360808401620001bd565b9360018060a0850151921b0381116200013f57620002f184620001a79285016200023f565b93620003018160c0860162000263565b9360e001620001bd565b6200032e620054de80380380620003228162000182565b92833981019062000272565b9091929394959697565b9061ff009060081b5b9181191691161790565b906200035e620001a76200036692151590565b825462000338565b9055565b6001600160401b0381116200017c5760200290565b620001f7620001a7916200036a565b6200039e620001a7620001a79290565b61ffff1690565b634e487b7160e01b600052601160045260246000fd5b9160001960089290920291821b911b62000341565b921b90565b620001a7620001a7620001a79290565b9190620003fa620001a76200036693620003d5565b908354620003bb565b6200019991600091620003e5565b8181106200041d575050565b806200042d600060019362000403565b0162000411565b906200044890600019906020036008021c90565b8154169055565b90918281106200045e57505050565b62000199929062000476905b92600052602060002090565b908101910162000411565b906801000000000000000081116200017c5781620004a162000199935490565b908281556200044f565b600391620004c56200046a600192620001a7868662000481565b92049160005b838110620004d95750505050565b6001906020620004ef620001a7865161ffff1690565b9401938184015501620004cb565b906200019991620004ab565b62000519620001a7620001a79290565b60ff1690565b8181106200052b575050565b806200053b600060019362000403565b016200051f565b9190918282106200055257505050565b6200019992600290601090600f018190046200057a6010600f87010494600052602060002090565b93840193019306026000811162000593575b506200051f565b620005a2906001830362000434565b386200058c565b906801000000000000000081116200017c5781620005c962000199935490565b9082815562000542565b9190600862000341910291620003d061ffff841b90565b906004906200046a6200060391620001a78486620005a9565b601082049160005b8381106200067a5750601083029003600081116200062a575b50505050565b92600093845b818110620006475750505001553880808062000624565b90919460206200066f60019262000663620001a78a5160ff1690565b908560020290620005d3565b960192910162000630565b6000805b60108110620006955750838201556001016200060b565b95906020620006bc600192620006b0620001a7865160ff1690565b908a60020290620005d3565b920196016200067e565b906200019991620005ea565b906001600160a01b039062000341565b620001a7906200019b906001600160a01b031682565b620001a790620006e2565b620001a790620006f8565b9062000722620001a7620003669262000703565b8254620006d2565b906000199062000341565b9062000749620001a76200036692620003d5565b82546200072a565b60ff8116620001b5565b90505190620001998262000751565b906020828203126200013f57620001a7916200075b565b6040513d6000823e3d90fd5b60001981146200079d5760010190565b620003a5565b634e487b7160e01b600052603260045260246000fd5b90620007c3825190565b811015620007d5576020809102010190565b620007a3565b90620007e79062000703565b600052602052604060002090565b9060ff9062000341565b9062000812620001a76200036692151590565b8254620007f5565b8054821015620007d55762000836600191600052602060002090565b91020190600090565b916001600160a01b0360089290920291821b911b62000341565b91906200086e620001a7620003669362000703565b9083546200083f565b90815491680100000000000000008310156200017c5782620008a391600162000199950181556200081a565b9062000859565b6001600160a01b03919091168152901515602082015260400190565b9293949691959095620008d862000be1565b600196620008e88860086200034b565b620008f460036200037f565b9460649562000903876200038e565b61ffff1681526200091560fa6200038e565b61ffff1660208201526200092b6103e86200038e565b61ffff16604082015262000941906012620004fd565b6200094d60046200037f565b95620009599062000509565b60ff1686526200096a603262000509565b60ff1660208701526200097e601962000509565b60ff166040870152600a95620009948762000509565b60ff166060820152620009a9906013620006c6565b620009b49062000c23565b620009c19060026200070e565b620009ce9060036200070e565b836080528460a052620009e390600762000735565b620009ee9062000703565b620009f9916200070e565b62000a049062000703565b62000a0f9062000703565b9063313ce56762000a1f60405190565b9262000a2b8260e01b90565b8452836004815a93602094fa801562000bad5762000a6260209362000a689262000a749660009162000bb3575b5060c05262000703565b62000703565b60405193849260e01b90565b825260049082905afa90811562000bad5760009162000b78575b5060e0528062000a9f6000620003d5565b905b62000aab57505050565b62000ab8620001a7845190565b81101562000b735762000b6c829162000afb8362000af5600b62000aee62000ae1868b620007b9565b516001600160a01b031690565b90620007db565b620007ff565b62000b18600c62000b1162000ae18489620007b9565b9062000877565b62000b2862000ae18287620007b9565b837f24ac9305f628cc42ffe7a95d02adb6df8eaf4bd42d00b25165abd72d06bcfd159162000b6362000b5960405190565b92839283620008aa565b0390a16200078d565b9062000aa1565b505050565b62000b9e915060203d811162000ba5575b62000b9581836200015a565b8101906200076a565b3862000a8e565b503d62000b89565b62000781565b62000bce9150863d811162000ba55762000b9581836200015a565b3862000a58565b620001a76001620003d5565b62000beb62000c01565b6200019962000bf962000bd5565b600162000735565b620001993362000c23565b620001a7906200019b565b620001a7905462000c0c565b62000c2f600062000c17565b9062000c3d8160006200070e565b62000c7462000c6d7f8be0079c531659141344cd1fd0a4f28419497f9722a3daafe3b4186f6b6457e09362000703565b9162000703565b9162000c7f60405190565b600090a356fe60e0604052600436101561001257600080fd5b60003560e01c80631073e2a714610298578063178906bf1461033d578063196b004b146103385780631efb1aa6146103335780631f53ac021461032e578063211e28b61461032957806322370685146103245780632b60c8221461031f5780632eb4a7ab1461031a57806337425fa014610315578063378580ea14610310578063392405ab1461030b5780633e413bee1461030657806340365852146103015780634614a261146102fc5780634615102c146102f7578063589db8d4146102f2578063659590c5146102ed57806368742da6146102e857806369c5b5e6146102e3578063715018a6146102de57806373a1a252146102d95780637adbf973146102d45780637cb64759146102cf5780637dc0d1d0146102ca57806384bc76a6146102c55780638a19c8bc146102c05780638da5cb5b146102bb5780638ea5220f146102b65780639aa1f78e146102b15780639eee94a8146102ac578063a060cc21146102a7578063a27e91a8146102a2578063a4e2d6341461029d578063ad655ef614610298578063b11d97f814610293578063b20d30a91461028e578063c1265f2414610289578063c1419def14610284578063c69f84451461027f578063ca26c5321461027a578063d3c7c2c714610275578063d656c29c14610270578063d6691e471461026b578063e236300614610266578063e2c6e43814610261578063e79864661461025c578063e9587e8614610257578063e9a4d24f14610252578063f2fde38b1461024d5763fe531ab40361034d5761109b565b611083565b611055565b610f95565b610f7c565b610f3e565b610f0c565b610edf565b610eba565b610e70565b610de1565b610dba565b610d6f565b610d54565b610d30565b610d15565b61037c565b610cfa565b610cd6565b610cbb565b610c4f565b610bea565b610bc3565b610b9c565b610b81565b610b00565b610ad9565b610a9c565b610a84565b610a68565b610a09565b6109ee565b6109af565b610994565b610979565b61094f565b610906565b6108eb565b6108a6565b610876565b610821565b6107e0565b610770565b610733565b61066a565b61063b565b6105fa565b6105ca565b61052b565b6104e7565b600091031261034d57565b600080fd5b90565b6103526103526103529290565b61035262015180610355565b610352610362565b9052565b565b3461034d5761038c366004610342565b6103a861039761036e565b6040515b9182918290815260200190565b0390f35b6001600160a01b031690565b6001600160a01b0381165b0361034d57565b9050359061037a826103b8565b806103c3565b9050359061037a826103d7565b909182601f8301121561034d5781359167ffffffffffffffff831161034d57602001926020830284011161034d57565b91909160a08184031261034d5761043183826103ca565b9261043f81602084016103ca565b9261044d82604085016103dd565b9261045b83606083016103ca565b92608082013567ffffffffffffffff811161034d5761047a92016103ea565b9091565b99979593919c9b9a98969492909c6101808b019d60008c016104a09115159052565b151560208b015260408a01526060890152608088015260a087015260c086015260ff1660e085015260ff1661010084015261012083015260ff166101408201526101600152565b3461034d576103a86105096104fd36600461041a565b94939093929192611fd4565b986105229c9a9c98919897929796939695949560405190565b9c8d9c8d61047e565b3461034d5761053b366004610342565b6103a87f00000000000000000000000000000000000000000000000000000000000000005b604051918291826001600160a01b03909116815260200190565b9060808282031261034d5761058f81836103ca565b9261059d82602085016103dd565b926105ab83604083016103ca565b92606082013567ffffffffffffffff811161034d5761047a92016103ea565b6105e16105d836600461057a565b93929092611fb0565b604051005b9060208282031261034d57610352916103ca565b3461034d576105e161060d3660046105e6565b6130d2565b8015156103c3565b9050359061037a82610612565b9060208282031261034d576103529161061a565b3461034d576105e161064e366004610627565b61303f565b90815260408101929161037a9160200152565b0152565b3461034d5761067a366004610342565b610682612577565b906103a861068f60405190565b92839283610653565b9060208282031261034d57610352916103dd565b634e487b7160e01b600052603260045260246000fd5b80548210156106e5576106dc600191600052602060002090565b91020190600090565b6106ac565b610352916008021c6001600160a01b031690565b9061035291546106ea565b600c6000610715825490565b83101561073057506103529161072a916106c2565b906106fe565b80fd5b3461034d576103a8610560610749366004610698565b610709565b610352916008021c81565b90610352915461074e565b61035260006004610759565b3461034d57610780366004610342565b6103a8610397610764565b610352906103ac906001600160a01b031682565b6103529061078b565b6103529061079f565b906107bb906107a8565b600052602052604060002090565b610352906107db6010916000926107b1565b610759565b3461034d576103a86103976107f63660046105e6565b6107c9565b610352916008021c5b60ff1690565b9061035291546107fb565b6103526001600861080a565b3461034d57610831366004610342565b6103a861083c610815565b6040515b91829182901515815260200190565b610352916008021c5b61ffff1690565b90610352915461084f565b6103526002600861085f565b3461034d57610886366004610342565b6103a861089161086a565b6040519182918261ffff909116815260200190565b3461034d576108b6366004610342565b6103a87f0000000000000000000000000000000000000000000000000000000000000000610560565b61035260006006610759565b3461034d576108fb366004610342565b6103a86103976108df565b3461034d57610916366004610342565b6103a87f00000000000000000000000000000000000000000000000000000000000000005b6040519182918260ff909116815260200190565b3461034d576105e1610962366004610698565b613b1a565b610352906107db600e916000926107b1565b3461034d576103a861039761098f3660046105e6565b610967565b3461034d576103a86103976109aa3660046105e6565b611fbd565b3461034d576105e16109c23660046105e6565b613807565b601260006109d3825490565b8310156107305750610352916109e8916106c2565b90610759565b3461034d576103a8610397610a04366004610698565b6109c7565b3461034d57610a19366004610342565b6105e161419e565b919060408382031261034d5761035290610a3b81856103dd565b936020016103ca565b906107bb90610355565b6107db61035292610a63600d93600094610a44565b6107b1565b3461034d576103a8610397610a7e366004610a21565b90610a4e565b3461034d576105e1610a973660046105e6565b6130b2565b3461034d576105e1610aaf366004610698565b612daf565b6103526000600a6106fe565b610376906107a8565b60208101929161037a9190610ac0565b3461034d57610ae9366004610342565b6103a8610af4610ab4565b60405191829182610ac9565b3461034d57610b10366004610342565b6103a8610b1b6126cf565b94610b2e98969894919493929360405190565b98899889908152610100810198979690959094909390929091602087015215156040860152151560608501526080840152151560a083015261ffff1660c082015260e00152565b61035260006005610759565b3461034d57610b91366004610342565b6103a8610397610b75565b3461034d57610bac366004610342565b6103a861056061410a565b610352600060026106fe565b3461034d57610bd3366004610342565b6103a8610560610bb7565b61035260006009610759565b3461034d57610bfa366004610342565b6103a8610397610bde565b909160408284031261034d57813567ffffffffffffffff811161034d5783610c2e9184016103ea565b929093602082013567ffffffffffffffff811161034d5761047a92016103ea565b3461034d576105e1610c62366004610c05565b92919091613562565b80549192918310156106e5576010610c8a600292600052602060002090565b8185040193060290565b60136000610ca0825490565b831015610730575061035291610cb591610c6b565b9061085f565b3461034d576103a8610891610cd1366004610698565b610c94565b3461034d576105e1610ce9366004610627565b613659565b6103526000600861080a565b3461034d57610d0a366004610342565b6103a861083c610cee565b3461034d57610d25366004610342565b6103a861dead610560565b3461034d576105e1610d43366004610698565b61305f565b6103526004600861080a565b3461034d57610d64366004610342565b6103a861083c610d48565b3461034d57610d7f366004610342565b6103a87f000000000000000000000000000000000000000000000000000000000000000061093b565b610352906107db600f916000926107b1565b3461034d576103a8610397610dd03660046105e6565b610da8565b61035260006007610759565b3461034d57610df1366004610342565b6103a8610397610dd5565b0190565b90610e20610e19610e0f845190565b8084529260200190565b9260200190565b9060005b818110610e315750505090565b909192610e57610e5060019286516001600160a01b0316815260200190565b9460200190565b929101610e24565b602080825261035292910190610e00565b3461034d57610e80366004610342565b6103a8610e8b612839565b60405191829182610e5f565b919060408382031261034d5761035290610eb181856103ca565b936020016103dd565b3461034d576105e1610ecd366004610e97565b906135e1565b610352600060036106fe565b3461034d57610eef366004610342565b6103a8610560610ed3565b610352906107db6011916000926107b1565b3461034d576103a8610397610f223660046105e6565b610efa565b61035290610f39600b916000926107b1565b61080a565b3461034d576103a861083c610f543660046105e6565b610f27565b919060408382031261034d5761035290610f7381856103ca565b9360200161061a565b3461034d576105e1610f8f366004610f59565b90612ff0565b3461034d576103a8610397610fab3660046105e6565b61248d565b90610fbf610e19610e0f845190565b9060005b818110610fd05750505090565b909192610fe6610e506001928651815260200190565b929101610fc3565b90610ffd610e19610e0f845190565b9060005b81811061100e5750505090565b909192611028610e50600192865161ffff16815260200190565b929101611001565b604080825261035293919261104791840190610fb0565b916020818403910152610fee565b3461034d57611065366004610342565b61106d612d6f565b906103a861107a60405190565b92839283611030565b3461034d576105e16110963660046105e6565b614237565b3461034d576105e16110ae3660046105e6565b6130f2565b906110c8949392916110c36142f0565b6111f4565b61037a614322565b6103529081565b61035290546110d0565b156110e857565b60405162461bcd60e51b8152602060048201526015602482015274149bdd5b99081b9bdd081a5b9a5d1a585b1a5e9959605a1b6044820152606490fd5b0390fd5b61035290610804565b6103529054611129565b1561114357565b60405162461bcd60e51b815260206004820152601260248201527110dbdb9d1c9858dd081a5cc81b1bd8dad95960721b6044820152606490fd5b1561118457565b60405162461bcd60e51b8152602060048201526011602482015270149bdd5b99081b9bdd081cdd185c9d1959607a1b6044820152606490fd5b156111c457565b60405162461bcd60e51b81526020600482015260086024820152674e6f2066756e647360c01b6044820152606490fd5b9061037a9493929161127e61120960056110d7565b61122560009161121f61121b84610355565b9190565b116110e1565b61123e6112396112356008611132565b1590565b61113c565b6112594261125261121b61035260066110d7565b101561117d565b611261612577565b9061126e61121b84610355565b11918215611283575b50506111bd565b6112d8565b61129291925061121b90610355565b113880611277565b156112a157565b60405162461bcd60e51b815260206004820152600f60248201526e139bdd081dda1a5d195b1a5cdd1959608a1b6044820152606490fd5b9061037a949392916112f36112ee868633613ee3565b61129a565b61174b565b6103ac6103526103529290565b610352906112f8565b1561131557565b60405162461bcd60e51b815260206004820152601a60248201527f446f206e6f742073656e64204f4e4520776974682045524332300000000000006044820152606490fd5b1561136157565b60405162461bcd60e51b8152602060048201526013602482015272135a5cdb585d18da0813d39148185b5bdd5b9d606a1b6044820152606490fd5b156113a357565b60405162461bcd60e51b81526020600482015260136024820152721dd3d391481b9bdd0818dbdb999a59dd5c9959606a1b6044820152606490fd5b156113e557565b60405162461bcd60e51b8152602060048201526013602482015272151bdad95b881b9bdd081cdd5c1c1bdc9d1959606a1b6044820152606490fd5b1561142757565b60405162461bcd60e51b815260206004820152602160248201527f52656465656d20746f6b656e206d75737420626520774f4e45206f72205553446044820152604360f81b6064820152608490fd5b1561147d57565b60405162461bcd60e51b815260206004820152601260248201527111185a5b1e481b1a5b5a5d081b1bd8dad95960721b6044820152606490fd5b90600019905b9181191691161790565b906114d76103526114de92610355565b82546114b7565b9055565b610352906103ac565b61035290546114e2565b634e487b7160e01b600052604160045260246000fd5b90601f01601f1916810190811067ffffffffffffffff82111761152d57604052565b6114f5565b9050519061037a826103d7565b60ff81166103c3565b9050519061037a8261153f565b919060408382031261034d576103529061156f8185611532565b93602001611548565b6040513d6000823e3d90fd5b1561158b57565b60405162461bcd60e51b815260206004820152600e60248201526d496e76616c6964206f7261636c6560901b6044820152606490fd5b9060208282031261034d5761035291611548565b634e487b7160e01b600052601160045260246000fd5b91906115f6565b9290565b820391821161160157565b6115d5565b1561160d57565b60405162461bcd60e51b8152602060048201526013602482015272115e18d959591cc819185a5b1e481b1a5b5a5d606a1b6044820152606490fd5b634e487b7160e01b600052601260045260246000fd5b8115611668570490565b611648565b60ff16604d811161160157600a0a90565b8181029291811591840414171561160157565b9060208282031261034d5761035291611532565b156116ac57565b60405162461bcd60e51b8152602060048201526016602482015275496e73756666696369656e74206c697175696469747960501b6044820152606490fd5b9190820180921161160157565b90815260608101939261037a929091604091610666905b6001600160a01b03166020830152565b61066661037a9461174460609498979561173d608086019a6000870152565b6020850152565b6040830152565b91925092506118d661175d6000611305565b936001600160a01b0385166001600160a01b03841614938415611fa9577f0000000000000000000000000000000000000000000000000000000000000000955b8515611f8c576117fa906117b284341461135a565b6117f36117e67f0000000000000000000000000000000000000000000000000000000000000000926001600160a01b031690565b916001600160a01b031690565b141561139c565b61181561181061180b88600b6107b1565b611132565b6113de565b6001600160a01b037f0000000000000000000000000000000000000000000000000000000000000000166001600160a01b038216148015611f56575b61185a90611420565b61186d61186833600f6107b1565b6110d7565b61187a61121b6000610355565b03611f32575b61188933613f44565b6118976118683360106107b1565b6118a461121b6000610355565b14611f1e575b60406118be6118b9600a6114eb565b6107a8565b63a3e6ba94906118cd60405190565b95869260e01b90565b825260049082905afa938415611d765786946000948591611ee5575b509061191385939261190e6119076000610355565b8213611584565b610355565b936001600160a01b037f0000000000000000000000000000000000000000000000000000000000000000166001600160a01b03881603611e0b577f00000000000000000000000000000000000000000000000000000000000000005b61197c858783858c613c0f565b978689976119a161186861199a61199360056110d7565b600d610a44565b33906107b1565b936119ac60076110d7565b600090861015611e025750846119c260076110d7565b906119cc916115eb565b9b611a8b611a28611a219b8f96611a9795611a19611a13611a91976119fc6119f4611a9c9d90565b821115611606565b611a0d670de0b6b3a7640000610355565b9061165e565b8d613b4a565b9e8f8d6115eb565b809a613c0f565b9c6001600160a01b037f0000000000000000000000000000000000000000000000000000000000000000166001600160a01b038c1603611ddb577f0000000000000000000000000000000000000000000000000000000000000000945b8b613d54565b9261166d565b8b61167e565b61165e565b99611aa6866107a8565b94611ad6611ab3876107a8565b60206370a08231611ac3306107a8565b92611acd60405190565b94859260e01b90565b82526001600160a01b038416600483015260249082905afa928315611d76578f92948f958d95611b1191600091611dad575b508711156116a5565b15611d7b575050505050611b476118b97f00000000000000000000000000000000000000000000000000000000000000006107a8565b9163d0e30db092803b1561034d57611b65936000916118cd60405190565b8252600490829088905af18015611d76578b8096611bb48f958c96611baf611cdd9d611bc09a611bbb98611d50575b505b611b9f836107a8565b611ba960026114eb565b90614370565b614039565b3390614370565b6116ea565b92611bda84611bd561199a61199360056110d7565b6114c7565b611be761035260076110d7565b8414611cf1575b611bfd42611bd533600e6107b1565b611c277ff0c71be01e59205b10ea5ae42439ab4504c7e3da732743531ff44e98bd9fd63f9a6107a8565b998a938492611c42611c3860405190565b92839287846116f7565b0390a27fc7e914640e860fbcf42ef4d9dceced8880d343828101f1fa389c7e1c06072817611c6f336107a8565b988992611c7e61068f60405190565b0390a3611c8b60076110d7565b600090821015611ce25750611ca990611ca460076110d7565b6115eb565b7f6150b0c0e0147233a3c4fcdece2c7f00253c80386e9a7af27493a02e9b2497e894611cd460405190565b9485948561171e565b0390a3565b611cec9150610355565b611ca9565b611cff6118683360106107b1565b611d0c61121b6000610355565b03611d3757611d32611d27425b611d21610362565b906116ea565b611bd533600f6107b1565b611bee565b611d32611d27611d4b6118683360106107b1565b611d19565b611d699060005b611d61818361150b565b810190610342565b38611b94565b503d611d57565b611578565b611bbb939585999293611baf611cdd9d611da88c611bc09c9a98611da1611bb4986107a8565b33906143dd565b611b96565b611dce915060203d8111611dd4575b611dc6818361150b565b810190611691565b38611b08565b503d611dbc565b7f000000000000000000000000000000000000000000000000000000000000000094611a85565b6119cc90610355565b919250906001600160a01b037f0000000000000000000000000000000000000000000000000000000000000000166001600160a01b03871603611e7257908492917f000000000000000000000000000000000000000000000000000000000000000061196f565b94906020611e866118b9611e9595946107a8565b63313ce567906118cd60405190565b825260049082905afa958615611d765788968694600091611eb7575b5061196f565b611ed8915060203d8111611ede575b611ed0818361150b565b8101906115c1565b38611eb1565b503d611ec6565b6119139550611f0e915060409392933d8111611f17575b611f06818361150b565b810190611555565b949291926118f2565b503d611efc565b611f2d42611bd53360106107b1565b6118aa565b611f5142611f4a61121b61035261186833600f6107b1565b1015611476565b611880565b506001600160a01b038181167f000000000000000000000000000000000000000000000000000000000000000090911614611851565b50611fa434611f9e61121b6000610355565b1461130e565b6117fa565b839561179d565b9061037a949392916110b3565b61186861035291611fcc600090565b50600e6107b1565b60c05260a0529390929091611fec919060c051613ee3565b928392611ffc6112356008611132565b9485612472575b859361201961181061180b600b60a051906107b1565b6120627f00000000000000000000000000000000000000000000000000000000000000006001600160a01b0381166001600160a01b03861614801561243c575b6103ac90611420565b60a0516001600160a01b031603612372577f0000000000000000000000000000000000000000000000000000000000000000915b82906001600160a01b037f0000000000000000000000000000000000000000000000000000000000000000166001600160a01b0386160361234b577f0000000000000000000000000000000000000000000000000000000000000000905b6121168260406121076118b9600a6114eb565b63a3e6ba9490611acd60405190565b825260049082905afa918215611d765789926000918291612328575b506121449061190e6119076000610355565b90819461215782848c829860a051613c0f565b9961217c611868612173600d61216d60056110d7565b90610a44565b60c051906107b1565b601061218d61186860c051836107b1565b61219a61121b6000610355565b14159081612304575b506122f4575b6121b360076110d7565b6000908210156122e457506121cc90611ca460076110d7565b945b600f6121df61186860c051836107b1565b6121ec61121b6000610355565b141590816122c4575b5080156122bb575b612290575050505050869798999a9b508097612218916115eb565b9561222a670de0b6b3a7640000610355565b612234908261165e565b61223e908b613b4a565b608052826080519a608051612252916115eb565b99838b81848a60a0519361226594613c0f565b9261226f92613d54565b906122798661166d565b6122829161167e565b9061228c9161165e565b9095565b9850989a509a509a509a50505050506122a96000610355565b94979685968680968196959493929190565b50858c116121fd565b90506122dd61121b610352611868429460c051906107b1565b10386121f5565b6122ee9150610355565b946121ce565b506122ff6000610355565b6121a9565b905061232061121b610352611d19611868429560c051906107b1565b1015386121a3565b6121449250612345915060403d8111611f1757611f06818361150b565b91612132565b7f0000000000000000000000000000000000000000000000000000000000000000906120f4565b6001600160a01b037f00000000000000000000000000000000000000000000000000000000000000001660a0516001600160a01b0316036123d5577f00000000000000000000000000000000000000000000000000000000000000005b91612096565b61240060206123e86118b960a0516107a8565b63313ce567906123f760405190565b93849260e01b90565b825260049082905afa908115611d765760009161241e575b506123cf565b612436915060203d8111611ede57611ed0818361150b565b38612418565b506001600160a01b038581167f000000000000000000000000000000000000000000000000000000000000000090911614612059565b94504261248561121b61035260066110d7565b101594612003565b600f61249c61186883836107b1565b906000916124ac61121b84610355565b1415908161255a575b5061251c576124d061186883610a63600d61216d60056110d7565b9160106124e061186883836107b1565b6124ec61121b85610355565b14159182612537575b5050612526575b61250660076110d7565b82101561251c575061035290611ca460076110d7565b6103529150610355565b905061253181610355565b906124fc565b612551919250610352611d1961186861121b9342966107b1565b101538806124f5565b905061257061121b6103526118688642956107b1565b10386124b5565b6125a36118b97f00000000000000000000000000000000000000000000000000000000000000006107a8565b906370a08231916125b3306107a8565b9060206125bf60405190565b80926125cb8760e01b90565b82526001600160a01b038516600483015260249082905afa918215611d765761265892602092600091612686575b509461264161262a6118b97f00000000000000000000000000000000000000000000000000000000000000006107a8565b9161263460405190565b9586948593849360e01b90565b83526001600160a01b031660048301526024820190565b03915afa908115611d765760009161266e575090565b610352915060203d8111611dd457611dc6818361150b565b61269d9150833d8111611dd457611dc6818361150b565b386125f9565b6103529060081c610804565b61035290546126a3565b6103529060101c610858565b61035290546126b9565b6126d7612577565b90916126e360056110d7565b906126ee60066110d7565b936126fc6112356008611132565b9384612789575b8461274c575b50506127156008611132565b9161272060076110d7565b9161272b60086126af565b9161273660086126c5565b9161274160096110d7565b919796959493929190565b9091935060009161275f61121b84610355565b11918215612772575b5050913880612709565b61278191925061121b90610355565b113880612768565b93504261279c61121b61035260066110d7565b101593612703565b906127bf6127b3610e0f845490565b92600052602060002090565b9060005b8181106127d05750505090565b9091926127fd6127f66001926127e5876114eb565b6001600160a01b0316815260200190565b9460010190565b9291016127c3565b90610352916127a4565b9061037a6128299261282060405190565b93848092612805565b038361150b565b6103529061280f565b610352600c612830565b906128526127b3610e0f845490565b9060005b8181106128635750505090565b9091926128806127f6600192612878876110d7565b815260200190565b929101612856565b9061035291612843565b9061037a612829926128a360405190565b93848092612888565b61035290612892565b61035290610858565b6103529060201c610858565b6103529060301c610858565b6103529060401c610858565b6103529060501c610858565b6103529060601c610858565b6103529060701c610858565b6103529060801c610858565b6103529060901c610858565b6103529060a01c610858565b6103529060b01c610858565b6103529060c01c610858565b6103529060d01c610858565b6103529060e01c610858565b6103529060f01c610858565b90600190612984612978610e0f855490565b93600052602060002090565b600092612bf5575b612997565b50505090565b5490808310612bd8575b808310612bbb575b808310612b9e575b808310612b81575b808310612b64575b808310612b47575b808310612b2a575b808310612b0d575b808310612af0575b808310612ad3575b808310612ab6575b808310612a99575b808310612a7c575b808310612a5f575b808310612a42575b8210612a1e575b80612991565b82612a3960019394612a3160209461295a565b61ffff169052565b01910138612a18565b9192602081612a56600193612a318661294e565b01930191612a11565b9192602081612a73600193612a3186612942565b01930191612a09565b9192602081612a90600193612a3186612936565b01930191612a01565b9192602081612aad600193612a318661292a565b019301916129f9565b9192602081612aca600193612a318661291e565b019301916129f1565b9192602081612ae7600193612a3186612912565b019301916129e9565b9192602081612b04600193612a3186612906565b019301916129e1565b9192602081612b21600193612a31866128fa565b019301916129d9565b9192602081612b3e600193612a31866128ee565b019301916129d1565b9192602081612b5b600193612a31866128e2565b019301916129c9565b9192602081612b78600193612a31866128d6565b019301916129c1565b9192602081612b95600193612a31866128ca565b019301916129b9565b9192602081612bb2600193612a31866128be565b019301916129b1565b9192602081612bcf600193612a31866126b9565b019301916129a9565b9192602081612bec600193612a31866128b5565b019301916129a1565b600f830182111561298c579283549080612c0e836128b5565b61ffff16905260200180612c21836126b9565b61ffff16905260200180612c34836128be565b61ffff16905260200180612c47836128ca565b61ffff16905260200180612c5a836128d6565b61ffff16905260200180612c6d836128e2565b61ffff16905260200180612c80836128ee565b61ffff16905260200180612c93836128fa565b61ffff16905260200180612ca683612906565b61ffff16905260200180612cb983612912565b61ffff16905260200180612ccc8361291e565b61ffff16905260200180612cdf8361292a565b61ffff16905260200180612cf283612936565b61ffff16905260200180612d0583612942565b61ffff16905260200180612d188361294e565b61ffff169052602001612d2b819261295a565b61ffff169052602001926001019160100191612bf5565b9061035291612966565b9061037a61282992612d5d60405190565b93848092612d42565b61035290612d4c565b601390610352612d7f60126128ac565b92612d66565b61037a90612d91614164565b612da4565b906114d76103526114de9290565b61037a906004612d96565b61037a90612d85565b9061037a91612dc5614164565b612ea3565b9060ff906114bd565b90612de36103526114de92151590565b8254612dca565b60001981146116015760010190565b916001600160a01b0360089290920291821b911b6114bd565b921b90565b9190612e286103526114de936107a8565b908354612df9565b634e487b7160e01b600052603160045260246000fd5b61037a91600091612e17565b80548015612e75576000190190612e72612e6c83836106c2565b90612e46565b55565b612e30565b90815491600160401b83101561152d5782612e9d91600161037a950181556106c2565b90612e17565b612eb782612eb283600b6107b1565b612dd3565b600091612ec46000610355565b600c612ed1610352825490565b821015612fe457612ee561072a83836106c2565b612ef76001600160a01b0386166117e6565b14612f0b5750612f0690612dea565b612ec4565b9293509091612f28916001918291908515612f9c575b5050501590565b80612f95575b612f85575b7f24ac9305f628cc42ffe7a95d02adb6df8eaf4bd42d00b25165abd72d06bcfd1591612f80612f6160405190565b6001600160a01b03909216825291151560208201529081906040820190565b0390a1565b612f9082600c612e7a565b612f33565b5080612f2e565b610352612fd792612e9d612fd061072a612fca612fdc98612fc4612fbe895490565b91610355565b906115eb565b866106c2565b91846106c2565b612e52565b388080612f21565b50509091612f28901590565b9061037a91612db8565b61037a90613006614164565b613011816008612dd3565b612f807f152cbfe4e8597a33181d2da9ed5162e734ca8b263b9eb6105f169287a39908f69161084060405190565b61037a90612ffa565b61037a90613054614164565b61037a9060076114c7565b61037a90613048565b61037a90613074614164565b61309f565b906001600160a01b03906114bd565b906130986103526114de926107a8565b8254613079565b6130ab61037a916107a8565b600a613088565b61037a90613068565b61037a906130c7614164565b61037a906002613088565b61037a906130bb565b61037a906130e7614164565b61037a906003613088565b61037a906130db565b9061037a93929161310a614164565b6134e9565b1561311657565b60405162461bcd60e51b8152602060048201526012602482015271496e76616c69642066656520636f6e66696760701b6044820152606490fd5b9160001960089290920291821b911b6114bd565b91906131756103526114de93610355565b908354613150565b61037a91600091613164565b818110613194575050565b806131a2600060019361317d565b01613189565b906131bb90600019906020036008021c90565b8154169055565b90918281106131d057505050565b61037a92906131de906127b3565b9081019101613189565b90600160401b811161152d578161320061037a935490565b908281556131c2565b35610352816103d7565b9067ffffffffffffffff831161152d576132366127b360019261035286866131e8565b92049160005b8381106132495750505050565b600190602061325a61035286613209565b940193818401550161323c565b9061037a9291613213565b81811061327d575050565b8061328b600060019361317d565b01613272565b9190918282106132a057505050565b61037a92600290601090600f018190046132c66010600f87010494600052602060002090565b9384019301930602600081116132dd575b50613272565b6132ea90600183036131a8565b386132d7565b90600160401b811161152d578161330861037a935490565b90828155613291565b61ffff81166103c3565b3561035281613311565b919060086114bd910291612e1261ffff841b90565b6108586103526103529261ffff1690565b919067ffffffffffffffff821161152d576127b361336d9161035284866132f0565b601082049160005b8381106133d9575060108302900360008111613392575b50505050565b92600093845b8181106133ad5750505001553880808061338c565b90919460206133cf6001926133c46103528a61331b565b908560020290613325565b9601929101613398565b6000805b601081106133f2575083820155600101613375565b959060206134136001926134086103528661331b565b908a60020290613325565b920196016133dd565b9061037a929161334b565b9037565b8183529091602001916001600160fb1b03811161034d5782916020610dfc9202938491613427565b9050359061037a82613311565b50610352906020810190613453565b818352602090920191906000825b82821061348b575050505090565b909192936134b56134ae6001926134a28886613460565b61ffff16815260200190565b9560200190565b9392019061347d565b92906134db9061035295936040860191868303600088015261342b565b92602081850391015261346f565b909192612f80906135166135076134fd8690565b611d216001610355565b6135108361121b565b1461310f565b61352284846012613267565b61352e8186601361341c565b7f24c55ad2a025115594fa08832ae03860656fa82ab5a4b4fd2360f6eb8ef2717b9461355960405190565b948594856134be565b9061037a9392916130fb565b9061037a9161357b614164565b6135bc565b1561358757565b60405162461bcd60e51b815260206004820152600d60248201526c139bdd081cdd5c1c1bdc9d1959609a1b6044820152606490fd5b90611bd561037a926135da6135d561180b83600b6107b1565b613580565b60116107b1565b9061037a9161356e565b61037a906135f7614164565b613620565b9061ff009060081b6114bd565b906136196103526114de92151590565b82546135fc565b61362b816008613609565b612f807ff6ee9fe93f292c45a3307220efbeeb1a744895ca22e3bee59a77e8077dbb9b3b9161084060405190565b61037a906135eb565b61037a9061366e614164565b6136f5565b1561367a57565b60405162461bcd60e51b8152602060048201526011602482015270151bdad95b881b9bdd08185b1b1bddd959607a1b6044820152606490fd5b156136ba57565b60405162461bcd60e51b81526020600482015260136024820152724e6f7468696e6720746f20776974686472617760681b6044820152606490fd5b61374761377b9161372c7f00000000000000000000000000000000000000000000000000000000000000006001600160a01b031690565b6001600160a01b0382161480156137d1575b6118b990613673565b6020613752826107a8565b6370a0823190612641613764306107a8565b9261376e60405190565b9687948593849360e01b90565b03915afa908115611d765761037a926000926137b1575b506137a76137a06000610355565b83116136b3565b611ba960036114eb565b6137ca91925060203d8111611dd457611dc6818361150b565b9038613792565b506001600160a01b038181167f00000000000000000000000000000000000000000000000000000000000000009091161461373e565b61037a90613662565b61037a9061381c614164565b6138cb565b1561382857565b60405162461bcd60e51b8152602060048201526016602482015275526f756e64204944206d75737420696e63726561736560501b6044820152606490fd5b9063ffff00009060101b6114bd565b906138856103526114de9261333a565b8254613866565b9064ff000000009060201b6114bd565b906138ac6103526114de92151590565b825461388c565b61ffff909116815260408101929161037a9160200152565b6138e26138db61035260056110d7565b8211613821565b6138ea612577565b9161394a60006138f981610355565b84118015613b04575b61390b906111bd565b6139168360056114c7565b61393b6139344261392760086126af565b15613afb57611d21610362565b60066114c7565b60406121076118b9600a6114eb565b825260049082905afa918215611d7657613a17926119fc926000928392613ac8575b50611d219161190e61190761398093610355565b916139ce81847f00000000000000000000000000000000000000000000000000000000000000008a7f0000000000000000000000000000000000000000000000000000000000000000613c0f565b927f0000000000000000000000000000000000000000000000000000000000000000897f0000000000000000000000000000000000000000000000000000000000000000613c0f565b613a2a613a2382613b96565b6008613875565b613a358160096114c7565b613a416001600861389c565b613a4b60086126c5565b907ff121f4a7f16537a53a88f6bdceb7f1d8e6d6afb2a0ddae0ad3d241960a31cb2390613a7784610355565b92613a8d613a8460405190565b928392836138b3565b0390a2612f80613a9d60066110d7565b7f1a1ee66c2455254feac7d7ae83f4704fb8cbe6a92ad835371c69dfaa7b48ed9294611cd460405190565b6119079350611d2192509061190e613af06139809360403d8111611f1757611f06818361150b565b95509350509061396c565b611d2184610355565b5061390b613b1182610355565b86119050613902565b61037a90613810565b6103529060201c610804565b6103529054613b23565b6103526103526103529261ffff1690565b613b839061035292613b5a600090565b50613b656008613b2f565b15613b8e5750613b7d613b7860086126c5565b613b39565b9061167e565b611a0d612710610355565b613b78613b7d915b613ba06000610355565b6012613bad610352825490565b821015613be9576103526109e883613bc4936106c2565b821115613bd957613bd490612dea565b613ba0565b6103529150610cb5906013610c6b565b505050610352610cb56013613c09613bff825490565b612fc46001610355565b90610c6b565b90939291906001600160a01b037f0000000000000000000000000000000000000000000000000000000000000000166001600160a01b03821603613c7f5750611a0d91613c7a613c7492611a0d613c7461035298613b7d670de0b6b3a7640000610355565b9161166d565b61167e565b91509150613cb37f00000000000000000000000000000000000000000000000000000000000000006001600160a01b031690565b6001600160a01b03821603613cde5750611a0d613c7461035293613b7d670de0b6b3a7640000610355565b6011613ced61186883836107b1565b613cfa61121b6000610355565b1115613d175761035293613b7d611868611a0d94613c74946107b1565b60405162461bcd60e51b81526020600482015260156024820152742ab739bab83837b93a32b2103b30b63ab0ba34b7b760591b6044820152606490fd5b9091906001600160a01b037f0000000000000000000000000000000000000000000000000000000000000000166001600160a01b03821603613da457505050610352670de0b6b3a7640000610355565b613dd66001600160a01b037f0000000000000000000000000000000000000000000000000000000000000000166117e6565b03613df657611a0d613c7461035293613b7d670de0b6b3a7640000610355565b60405162461bcd60e51b815260206004820152601860248201527f556e737570706f727465642072656465656d20746f6b656e00000000000000006044820152606490fd5b610376906001600160a01b031660601b90565b610dfc81601493613e3b565b9061037a613e6760405190565b928361150b565b67ffffffffffffffff811161152d5760208091020190565b90929192613e9b613e9682613e6e565b613e5a565b938185526020808601920283019281841161034d57915b838310613ebf5750505050565b60208091613ecd84866103dd565b815201920191613eb2565b610352913691613e86565b613f3f61035293613ef2600090565b50613efd60046110d7565b92613f26613f0a60405190565b8092613f1a602083019182613e4e565b9081038252038261150b565b613f38613f31825190565b9160200190565b2093613ed8565b61476f565b600f613f5361186883836107b1565b90600091613f6361121b84610355565b14158061401d575b613fe45750601090613f8061186884846107b1565b613f8c61121b83610355565b141580613fc5575b613f9d57505050565b61037a92613fad611bd592610355565b92610a6384611bd584610a63600d61216d60056110d7565b5042613fdd61121b610352611d1961186888886107b1565b1015613f94565b82614016611bd592611bd5613ffc61037a9796610355565b958692610a6384611bd584610a63600d61216d60056110d7565b60106107b1565b504261403261121b61035261186887866107b1565b1015613f6b565b600061404481610355565b8314614105576140566118b9836107a8565b906342966c6891803b1561034d57614073928291611acd60405190565b825260048201879052602490829084905af191826140e8575b505015614097575050565b6140ac826140a4836107a8565b61dead611ba9565b6140e36140d97fa398d5f9f871dba811072f1e7c36829d2ccca834f3d7fb05ab4e64563c645d32926107a8565b9261039b60405190565b0390a2565b816140fe92903d10611d6f57611d61818361150b565b388061408c565b505050565b61035260006114eb565b1561411b57565b60405162461bcd60e51b815280611125600482016020808252818101527f4f776e61626c653a2063616c6c6572206973206e6f7420746865206f776e6572604082015260600190565b61037a61416f61410a565b61417b6117e6336103ac565b14614114565b614189614164565b61037a61037a6141996000611305565b614240565b61037a614181565b61037a906141b2614164565b614212565b156141be57565b60405162461bcd60e51b815260206004820152602660248201527f4f776e61626c653a206e6577206f776e657220697320746865207a65726f206160448201526564647265737360d01b6064820152608490fd5b61037a906141996142266103ac6000611305565b6001600160a01b03831614156141b7565b61037a906141a6565b61424a60006114eb565b90614256816000613088565b6142896142837f8be0079c531659141344cd1fd0a4f28419497f9722a3daafe3b4186f6b6457e0936107a8565b916107a8565b9161429360405190565b8080611cdd565b6103526002610355565b156142ab57565b60405162461bcd60e51b815260206004820152601f60248201527f5265656e7472616e637947756172643a207265656e7472616e742063616c6c006044820152606490fd5b61037a6142fd60016110d7565b61431161430861429a565b918214156142a4565b60016114c7565b6103526001610355565b61037a614311614318565b6143466143406103529263ffffffff1690565b60e01b90565b6001600160e01b03191690565b6001600160a01b03909116815260408101929161037a9160200152565b6143b36004926143a461037a9561438a63a9059cbb61432d565b9261439460405190565b9687946020860190815201614353565b6020820181038252038361150b565b6144fd565b6001600160a01b03909116815260608101939261037a9290916040916106669061170e565b906143b3906143a461037a956004956143f96323b872dd61432d565b9361440360405190565b97889560208701908152016143b8565b67ffffffffffffffff811161152d57602090601f01601f19160190565b9061443d613e9683614413565b918252565b61444c6020614430565b7f5361666545524332303a206c6f772d6c6576656c2063616c6c206661696c6564602082015290565b610352614442565b9050519061037a82610612565b9060208282031261034d576103529161447d565b156144a557565b60405162461bcd60e51b815260206004820152602a60248201527f5361666545524332303a204552433230206f7065726174696f6e20646964206e6044820152691bdd081cdd58d8d9595960b21b6064820152608490fd5b61037a9161450d61451c926107a8565b90614516614475565b9161455a565b805161452b61121b6000610355565b1490811561453a575b5061449e565b61455491506020614549825190565b81830101910161448a565b38614534565b61035292916145696000610355565b916145e9565b1561457657565b60405162461bcd60e51b815260206004820152602660248201527f416464726573733a20696e73756666696369656e742062616c616e636520666f6044820152651c8818d85b1b60d21b6064820152608490fd5b3d156145e4576145d93d614430565b903d6000602084013e565b606090565b906000610352949381926145fb606090565b50614612614608306107a8565b839031101561456f565b60208101905191855af16146246145ca565b91614676565b1561463157565b60405162461bcd60e51b815260206004820152601d60248201527f416464726573733a2063616c6c20746f206e6f6e2d636f6e74726163740000006044820152606490fd5b919290156146a85750815161468e61121b6000610355565b14614697575090565b6146a3610352916146ae565b61462a565b82614728565b3b6146bc61121b6000610355565b1190565b60005b8381106146d35750506000910152565b81810151838201526020016146c3565b61470461470d602093610dfc936146f8815190565b80835293849260200190565b958691016146c0565b601f01601f191690565b6020808252610352929101906146e3565b90614731825190565b61473e61121b6000610355565b111561474d5750805190602001fd5b6111259061475a60405190565b62461bcd60e51b815291829160048301614717565b6115f2614789929361121b92614783600090565b506147a7565b1490565b90614796825190565b8110156106e5576020809102010190565b6147b16000610355565b915b6147be610352835190565b8310156147ef576147e36147e9916147dd6147d9868661478d565b5190565b906147f5565b92612dea565b916147b3565b91505090565b81811015614810579061035291600052602052604060002090565b6103529160005260205260406000209056fea2646970667358221220fdbc1919ad61a46b74ffa7f8b54f5f94cc8e2cd7477cd590c2b43dfac5a92b9964736f6c63430008120033",
  "linkReferences": {},
  "deployedLinkReferences": {}
}